{
  "contractName": "Voting",
  "abi": [
    {
      "inputs": [
        {
          "internalType": "string[]",
          "name": "_candidates",
          "type": "string[]"
        }
      ],
      "stateMutability": "nonpayable",
      "type": "constructor"
    },
    {
      "inputs": [
        {
          "internalType": "uint256",
          "name": "",
          "type": "uint256"
        }
      ],
      "name": "candidates",
      "outputs": [
        {
          "internalType": "string",
          "name": "",
          "type": "string"
        }
      ],
      "stateMutability": "view",
      "type": "function"
    },
    {
      "inputs": [
        {
          "internalType": "string",
          "name": "",
          "type": "string"
        }
      ],
      "name": "votesReceived",
      "outputs": [
        {
          "internalType": "uint256",
          "name": "",
          "type": "uint256"
        }
      ],
      "stateMutability": "view",
      "type": "function"
    },
    {
      "inputs": [
        {
          "internalType": "string",
          "name": "candidate",
          "type": "string"
        }
      ],
      "name": "voteForCandidate",
      "outputs": [],
      "stateMutability": "nonpayable",
      "type": "function"
    },
    {
      "inputs": [
        {
          "internalType": "string",
          "name": "candidate",
          "type": "string"
        }
      ],
      "name": "totalVotesFor",
      "outputs": [
        {
          "internalType": "uint256",
          "name": "",
          "type": "uint256"
        }
      ],
      "stateMutability": "view",
      "type": "function"
    }
  ],
  "bytecode": "0x60806040523480156200001157600080fd5b5060405162000e6038038062000e60833981810160405281019062000037919062000475565b80600190805190602001906200004f92919062000057565b50506200052a565b828054828255906000526020600020908101928215620000ab579160200282015b82811115620000aa57825182908051906020019062000099929190620000be565b509160200191906001019062000078565b5b509050620000ba91906200014f565b5090565b828054620000cc90620004f5565b90600052602060002090601f016020900481019282620000f057600085556200013c565b82601f106200010b57805160ff19168380011785556200013c565b828001600101855582156200013c579182015b828111156200013b5782518255916020019190600101906200011e565b5b5090506200014b919062000177565b5090565b5b8082111562000173576000818162000169919062000196565b5060010162000150565b5090565b5b808211156200019257600081600090555060010162000178565b5090565b508054620001a490620004f5565b6000825580601f10620001b85750620001d9565b601f016020900490600052602060002090810190620001d8919062000177565b5b50565b6000604051905090565b600080fd5b600080fd5b600080fd5b6000601f19601f8301169050919050565b7f4e487b7100000000000000000000000000000000000000000000000000000000600052604160045260246000fd5b6200024082620001f5565b810181811067ffffffffffffffff8211171562000262576200026162000206565b5b80604052505050565b600062000277620001dc565b905062000285828262000235565b919050565b600067ffffffffffffffff821115620002a857620002a762000206565b5b602082029050602081019050919050565b600080fd5b600080fd5b600067ffffffffffffffff821115620002e157620002e062000206565b5b620002ec82620001f5565b9050602081019050919050565b60005b8381101562000319578082015181840152602081019050620002fc565b8381111562000329576000848401525b50505050565b6000620003466200034084620002c3565b6200026b565b905082815260208101848484011115620003655762000364620002be565b5b62000372848285620002f9565b509392505050565b600082601f830112620003925762000391620001f0565b5b8151620003a48482602086016200032f565b91505092915050565b6000620003c4620003be846200028a565b6200026b565b90508083825260208201905060208402830185811115620003ea57620003e9620002b9565b5b835b818110156200043857805167ffffffffffffffff811115620004135762000412620001f0565b5b8086016200042289826200037a565b85526020850194505050602081019050620003ec565b5050509392505050565b600082601f8301126200045a5762000459620001f0565b5b81516200046c848260208601620003ad565b91505092915050565b6000602082840312156200048e576200048d620001e6565b5b600082015167ffffffffffffffff811115620004af57620004ae620001eb565b5b620004bd8482850162000442565b91505092915050565b7f4e487b7100000000000000000000000000000000000000000000000000000000600052602260045260246000fd5b600060028204905060018216806200050e57607f821691505b602082108103620005245762000523620004c6565b5b50919050565b610926806200053a6000396000f3fe608060405234801561001057600080fd5b506004361061004c5760003560e01c80633477ee2e146100515780634a3bf377146100815780638d4b44d9146100b1578063e89927ef146100e1575b600080fd5b61006b6004803603810190610066919061038f565b6100fd565b6040516100789190610455565b60405180910390f35b61009b600480360381019061009691906105ac565b6101a9565b6040516100a89190610604565b60405180910390f35b6100cb60048036038101906100c691906105ac565b610219565b6040516100d89190610604565b60405180910390f35b6100fb60048036038101906100f691906105ac565b610247565b005b6001818154811061010d57600080fd5b9060005260206000200160009150905080546101289061064e565b80601f01602080910402602001604051908101604052809291908181526020018280546101549061064e565b80156101a15780601f10610176576101008083540402835291602001916101a1565b820191906000526020600020905b81548152906001019060200180831161018457829003601f168201915b505050505081565b60006101b4826102c8565b6101f3576040517f08c379a00000000000000000000000000000000000000000000000000000000081526004016101ea906106cb565b60405180910390fd5b6000826040516102039190610727565b9081526020016040518091039020549050919050565b6000818051602081018201805184825260208301602085012081835280955050505050506000915090505481565b610250816102c8565b61028f576040517f08c379a0000000000000000000000000000000000000000000000000000000008152600401610286906106cb565b60405180910390fd5b60016000826040516102a19190610727565b908152602001604051809103902060008282546102be919061076d565b9250508190555050565b600080600090505b60018054905081101561033a578280519060200120600182815481106102f9576102f86107c3565b5b906000526020600020016040516103109190610891565b604051809103902003610327576001915050610340565b8080610332906108a8565b9150506102d0565b50600090505b919050565b6000604051905090565b600080fd5b600080fd5b6000819050919050565b61036c81610359565b811461037757600080fd5b50565b60008135905061038981610363565b92915050565b6000602082840312156103a5576103a461034f565b5b60006103b38482850161037a565b91505092915050565b600081519050919050565b600082825260208201905092915050565b60005b838110156103f65780820151818401526020810190506103db565b83811115610405576000848401525b50505050565b6000601f19601f8301169050919050565b6000610427826103bc565b61043181856103c7565b93506104418185602086016103d8565b61044a8161040b565b840191505092915050565b6000602082019050818103600083015261046f818461041c565b905092915050565b600080fd5b600080fd5b7f4e487b7100000000000000000000000000000000000000000000000000000000600052604160045260246000fd5b6104b98261040b565b810181811067ffffffffffffffff821117156104d8576104d7610481565b5b80604052505050565b60006104eb610345565b90506104f782826104b0565b919050565b600067ffffffffffffffff82111561051757610516610481565b5b6105208261040b565b9050602081019050919050565b82818337600083830152505050565b600061054f61054a846104fc565b6104e1565b90508281526020810184848401111561056b5761056a61047c565b5b61057684828561052d565b509392505050565b600082601f83011261059357610592610477565b5b81356105a384826020860161053c565b91505092915050565b6000602082840312156105c2576105c161034f565b5b600082013567ffffffffffffffff8111156105e0576105df610354565b5b6105ec8482850161057e565b91505092915050565b6105fe81610359565b82525050565b600060208201905061061960008301846105f5565b92915050565b7f4e487b7100000000000000000000000000000000000000000000000000000000600052602260045260246000fd5b6000600282049050600182168061066657607f821691505b6020821081036106795761067861061f565b5b50919050565b7f43616e646964617465206e6f742076616c69642e000000000000000000000000600082015250565b60006106b56014836103c7565b91506106c08261067f565b602082019050919050565b600060208201905081810360008301526106e4816106a8565b9050919050565b600081905092915050565b6000610701826103bc565b61070b81856106eb565b935061071b8185602086016103d8565b80840191505092915050565b600061073382846106f6565b915081905092915050565b7f4e487b7100000000000000000000000000000000000000000000000000000000600052601160045260246000fd5b600061077882610359565b915061078383610359565b9250827fffffffffffffffffffffffffffffffffffffffffffffffffffffffffffffffff038211156107b8576107b761073e565b5b828201905092915050565b7f4e487b7100000000000000000000000000000000000000000000000000000000600052603260045260246000fd5b600081905092915050565b60008190508160005260206000209050919050565b6000815461081f8161064e565b61082981866107f2565b94506001821660008114610844576001811461085557610888565b60ff19831686528186019350610888565b61085e856107fd565b60005b8381101561088057815481890152600182019150602081019050610861565b838801955050505b50505092915050565b600061089d8284610812565b915081905092915050565b60006108b382610359565b91507fffffffffffffffffffffffffffffffffffffffffffffffffffffffffffffffff82036108e5576108e461073e565b5b60018201905091905056fea26469706673582212200253ba0f06333ca25e48e6924ac89e6623fc6a4351d8d29fa26c74c9014cf93e64736f6c634300080d0033",
  "immutableReferences": {},
  "source": "// SPDX-License-Identifier: MIT\r\npragma solidity=0.8.13;\r\n\r\ncontract Voting {\r\n    mapping(string => uint256) public votesReceived;\r\n    string[] public candidates;\r\n\r\n    constructor(string[] memory _candidates) {\r\n        candidates = _candidates;\r\n    }\r\n\r\n    function voteForCandidate(string memory candidate) public {\r\n        require(validCandidate(candidate), \"Candidate not valid.\");\r\n        votesReceived[candidate] += 1;\r\n    }\r\n\r\n    function totalVotesFor(string memory candidate) public view returns (uint256) {\r\n        require(validCandidate(candidate), \"Candidate not valid.\");\r\n        return votesReceived[candidate];\r\n    }\r\n\r\n    function validCandidate(string memory candidate) private view returns (bool) {\r\n        for (uint256 i = 0; i < candidates.length; i++) {\r\n            if (keccak256(bytes(candidates[i])) == keccak256(bytes(candidate))) {\r\n                return true;\r\n            }\r\n        }\r\n        return false;\r\n    }\r\n}\r\n",
  "sourcePath": "D:\\kaushalya\\consultancy\\sindhi\\2025\\blockchain\\workshop\\programs\\dapps\\votingapp\\contracts\\voting.sol",
  "compiler": {
    "name": "solc",
    "version": "0.8.13+commit.abaa5c0e.Emscripten.clang"
  },
  "schemaVersion": "3.4.16",
  "updatedAt": "2025-05-03T04:12:11.400Z",
  "devdoc": {
    "kind": "dev",
    "methods": {},
    "version": 1
  },
  "userdoc": {
    "kind": "user",
    "methods": {},
    "version": 1
  }
}