{
  "contractName": "EtherTransfer",
  "abi": [
    {
      "anonymous": false,
      "inputs": [
        {
          "indexed": true,
          "internalType": "address",
          "name": "from",
          "type": "address"
        },
        {
          "indexed": true,
          "internalType": "address",
          "name": "to",
          "type": "address"
        },
        {
          "indexed": false,
          "internalType": "uint256",
          "name": "amount",
          "type": "uint256"
        }
      ],
      "name": "Transfer",
      "type": "event"
    },
    {
      "stateMutability": "payable",
      "type": "receive",
      "payable": true
    },
    {
      "inputs": [
        {
          "internalType": "address payable",
          "name": "_to",
          "type": "address"
        }
      ],
      "name": "transferEther",
      "outputs": [],
      "stateMutability": "payable",
      "type": "function",
      "payable": true
    }
  ],
  "bytecode": "0x608060405234801561001057600080fd5b5061038e806100206000396000f3fe6080604052600436106100225760003560e01c80636b55e9911461002e57610029565b3661002957005b600080fd5b6100486004803603810190610043919061020e565b61004a565b005b6000341161008d576040517f08c379a000000000000000000000000000000000000000000000000000000000815260040161008490610298565b60405180910390fd5b600073ffffffffffffffffffffffffffffffffffffffff168173ffffffffffffffffffffffffffffffffffffffff16036100fc576040517f08c379a00000000000000000000000000000000000000000000000000000000081526004016100f390610304565b60405180910390fd5b8073ffffffffffffffffffffffffffffffffffffffff166108fc349081150290604051600060405180830381858888f19350505050158015610142573d6000803e3d6000fd5b508073ffffffffffffffffffffffffffffffffffffffff163373ffffffffffffffffffffffffffffffffffffffff167fddf252ad1be2c89b69c2b068fc378daa952ba7f163c4a11628f55a4df523b3ef346040516101a0919061033d565b60405180910390a350565b600080fd5b600073ffffffffffffffffffffffffffffffffffffffff82169050919050565b60006101db826101b0565b9050919050565b6101eb816101d0565b81146101f657600080fd5b50565b600081359050610208816101e2565b92915050565b600060208284031215610224576102236101ab565b5b6000610232848285016101f9565b91505092915050565b600082825260208201905092915050565b7f416d6f756e74206d7573742062652067726561746572207468616e207a65726f600082015250565b600061028260208361023b565b915061028d8261024c565b602082019050919050565b600060208201905081810360008301526102b181610275565b9050919050565b7f496e76616c696420726563697069656e74206164647265737300000000000000600082015250565b60006102ee60198361023b565b91506102f9826102b8565b602082019050919050565b6000602082019050818103600083015261031d816102e1565b9050919050565b6000819050919050565b61033781610324565b82525050565b6000602082019050610352600083018461032e565b9291505056fea26469706673582212203abb0f8cc170acb1e25e1447659731e7059143efff9bf3aa6a413aecc489318c64736f6c634300080d0033",
  "immutableReferences": {},
  "source": "// SPDX-License-Identifier: MIT\r\npragma solidity 0.8.13;\r\ncontract EtherTransfer {\r\n    // Event to log the transfer\r\n    event Transfer(address indexed from, address indexed to, uint256 amount);\r\n\r\n    // Function to transfer Ether\r\n    function transferEther(address payable _to) public payable {\r\n        require(msg.value > 0, \"Amount must be greater than zero\");\r\n        require(_to != address(0), \"Invalid recipient address\");\r\n\r\n        // Transfer Ether\r\n        _to.transfer(msg.value);\r\n\r\n        // Emit the transfer event\r\n        emit Transfer(msg.sender, _to, msg.value);\r\n    }\r\n\r\n    // Fallback function to accept Ether\r\n    receive() external payable {}\r\n}",
  "sourcePath": "D:\\kaushalya\\consultancy\\sindhi\\2025\\blockchain\\workshop\\programs\\dapps\\transferapp\\contracts\\EtherTransfer.sol",
  "compiler": {
    "name": "solc",
    "version": "0.8.13+commit.abaa5c0e.Emscripten.clang"
  },
  "schemaVersion": "3.4.16",
  "updatedAt": "2025-05-05T04:01:34.153Z",
  "networkType": "ethereum",
  "devdoc": {
    "kind": "dev",
    "methods": {},
    "version": 1
  },
  "userdoc": {
    "kind": "user",
    "methods": {},
    "version": 1
  }
}